{
  "contractName": "TBPoolJoinExit",
  "abi": [
    {
      "constant": true,
      "inputs": [],
      "name": "BONE",
      "outputs": [
        {
          "internalType": "uint256",
          "name": "",
          "type": "uint256"
        }
      ],
      "payable": false,
      "stateMutability": "view",
      "type": "function"
    },
    {
      "constant": true,
      "inputs": [],
      "name": "BPOW_PRECISION",
      "outputs": [
        {
          "internalType": "uint256",
          "name": "",
          "type": "uint256"
        }
      ],
      "payable": false,
      "stateMutability": "view",
      "type": "function"
    },
    {
      "constant": true,
      "inputs": [],
      "name": "EXIT_FEE",
      "outputs": [
        {
          "internalType": "uint256",
          "name": "",
          "type": "uint256"
        }
      ],
      "payable": false,
      "stateMutability": "view",
      "type": "function"
    },
    {
      "constant": true,
      "inputs": [],
      "name": "INIT_POOL_SUPPLY",
      "outputs": [
        {
          "internalType": "uint256",
          "name": "",
          "type": "uint256"
        }
      ],
      "payable": false,
      "stateMutability": "view",
      "type": "function"
    },
    {
      "constant": true,
      "inputs": [],
      "name": "MAX_BOUND_TOKENS",
      "outputs": [
        {
          "internalType": "uint256",
          "name": "",
          "type": "uint256"
        }
      ],
      "payable": false,
      "stateMutability": "view",
      "type": "function"
    },
    {
      "constant": true,
      "inputs": [],
      "name": "MAX_BPOW_BASE",
      "outputs": [
        {
          "internalType": "uint256",
          "name": "",
          "type": "uint256"
        }
      ],
      "payable": false,
      "stateMutability": "view",
      "type": "function"
    },
    {
      "constant": true,
      "inputs": [],
      "name": "MAX_FEE",
      "outputs": [
        {
          "internalType": "uint256",
          "name": "",
          "type": "uint256"
        }
      ],
      "payable": false,
      "stateMutability": "view",
      "type": "function"
    },
    {
      "constant": true,
      "inputs": [],
      "name": "MAX_IN_RATIO",
      "outputs": [
        {
          "internalType": "uint256",
          "name": "",
          "type": "uint256"
        }
      ],
      "payable": false,
      "stateMutability": "view",
      "type": "function"
    },
    {
      "constant": true,
      "inputs": [],
      "name": "MAX_OUT_RATIO",
      "outputs": [
        {
          "internalType": "uint256",
          "name": "",
          "type": "uint256"
        }
      ],
      "payable": false,
      "stateMutability": "view",
      "type": "function"
    },
    {
      "constant": true,
      "inputs": [],
      "name": "MAX_TOTAL_WEIGHT",
      "outputs": [
        {
          "internalType": "uint256",
          "name": "",
          "type": "uint256"
        }
      ],
      "payable": false,
      "stateMutability": "view",
      "type": "function"
    },
    {
      "constant": true,
      "inputs": [],
      "name": "MAX_WEIGHT",
      "outputs": [
        {
          "internalType": "uint256",
          "name": "",
          "type": "uint256"
        }
      ],
      "payable": false,
      "stateMutability": "view",
      "type": "function"
    },
    {
      "constant": true,
      "inputs": [],
      "name": "MIN_BALANCE",
      "outputs": [
        {
          "internalType": "uint256",
          "name": "",
          "type": "uint256"
        }
      ],
      "payable": false,
      "stateMutability": "view",
      "type": "function"
    },
    {
      "constant": true,
      "inputs": [],
      "name": "MIN_BOUND_TOKENS",
      "outputs": [
        {
          "internalType": "uint256",
          "name": "",
          "type": "uint256"
        }
      ],
      "payable": false,
      "stateMutability": "view",
      "type": "function"
    },
    {
      "constant": true,
      "inputs": [],
      "name": "MIN_BPOW_BASE",
      "outputs": [
        {
          "internalType": "uint256",
          "name": "",
          "type": "uint256"
        }
      ],
      "payable": false,
      "stateMutability": "view",
      "type": "function"
    },
    {
      "constant": true,
      "inputs": [],
      "name": "MIN_FEE",
      "outputs": [
        {
          "internalType": "uint256",
          "name": "",
          "type": "uint256"
        }
      ],
      "payable": false,
      "stateMutability": "view",
      "type": "function"
    },
    {
      "constant": true,
      "inputs": [],
      "name": "MIN_WEIGHT",
      "outputs": [
        {
          "internalType": "uint256",
          "name": "",
          "type": "uint256"
        }
      ],
      "payable": false,
      "stateMutability": "view",
      "type": "function"
    },
    {
      "constant": true,
      "inputs": [],
      "name": "echidna_no_bug_found",
      "outputs": [
        {
          "internalType": "bool",
          "name": "",
          "type": "bool"
        }
      ],
      "payable": false,
      "stateMutability": "view",
      "type": "function"
    },
    {
      "constant": true,
      "inputs": [],
      "name": "getColor",
      "outputs": [
        {
          "internalType": "bytes32",
          "name": "",
          "type": "bytes32"
        }
      ],
      "payable": false,
      "stateMutability": "view",
      "type": "function"
    },
    {
      "constant": false,
      "inputs": [
        {
          "internalType": "uint256",
          "name": "poolAmountOut",
          "type": "uint256"
        },
        {
          "internalType": "uint256",
          "name": "poolAmountIn",
          "type": "uint256"
        },
        {
          "internalType": "uint256",
          "name": "poolTotal",
          "type": "uint256"
        },
        {
          "internalType": "uint256",
          "name": "_records_t_balance",
          "type": "uint256"
        }
      ],
      "name": "joinAndExitPool",
      "outputs": [],
      "payable": false,
      "stateMutability": "nonpayable",
      "type": "function"
    }
  ],
  "bytecode": "0x60806040526000805460ff1916600117905534801561001d57600080fd5b506108298061002d6000396000f3fe608060405234801561001057600080fd5b506004361061012e576000357c0100000000000000000000000000000000000000000000000000000000900480639a86139b116100ca578063bc694ea21161008e578063bc694ea2146101f2578063c36596a614610171578063c6580d12146101fa578063e4a28a5214610133578063ec093021146102025761012e565b80639a86139b146101ca578063b0e0d136146101d2578063b7b800a4146101da578063ba019dab146101e2578063bc063e1a146101ea5761012e565b806309a3bbe4146101335780631819aa421461014d578063189d00ca14610169578063218b5382146101715780632370e3a41461017957806376c7a3c7146101aa578063867378c5146101b25780639381cd2b146101ba578063992e2a92146101c2575b600080fd5b61013b61020a565b60408051918252519081900360200190f35b610155610217565b604080519115158252519081900360200190f35b61013b610220565b61013b610234565b6101a86004803603608081101561018f57600080fd5b5080359060208101359060408101359060600135610240565b005b61013b610317565b61013b610329565b61013b61033d565b61013b61034a565b61013b610356565b61013b61037a565b61013b61037f565b61013b610384565b61013b610389565b61013b610399565b61013b6103a5565b61013b6103aa565b6802b5e3af16b188000081565b60005460ff1681565b6402540be400670de0b6b3a76400005b0481565b670de0b6b3a764000081565b600061024d8584846103ba565b905068056bc75e2d6310000083111561026557600080fd5b670de0b6b3a764000083101561027a57600080fd5b678ac7230489e8000082111561028f57600080fd5b620f424082101561029f57600080fd5b6102a98386610436565b92506102b58282610436565b9150600081116102c457600080fd5b838310156102d157600080fd5b60006102de85858561049a565b9050808310156102ed57600080fd5b8486116102f957600080fd5b81811461030557600080fd5b50506000805460ff1916905550505050565b620f4240670de0b6b3a7640000610230565b64e8d4a51000670de0b6b3a7640000610230565b68056bc75e2d6310000081565b6704a03ce68d21555681565b7f42524f4e5a45000000000000000000000000000000000000000000000000000090565b600881565b600281565b600181565b600a670de0b6b3a7640000610230565b671bc16d674ec7ffff81565b600081565b6002670de0b6b3a7640000610230565b6000806103c78585610535565b90508061041e576040805160e560020a62461bcd02815260206004820152600f60248201527f4552525f4d4154485f415050524f580000000000000000000000000000000000604482015290519081900360640190fd5b82600061042b838361067c565b979650505050505050565b600082820183811015610493576040805160e560020a62461bcd02815260206004820152601060248201527f4552525f4144445f4f564552464c4f5700000000000000000000000000000000604482015290519081900360640190fd5b9392505050565b6000806104a885600061067c565b905060006104b6868361075e565b905060006104c48287610535565b90508061051b576040805160e560020a62461bcd02815260206004820152600f60248201527f4552525f4d4154485f415050524f580000000000000000000000000000000000604482015290519081900360640190fd5b846000610528838361067c565b9998505050505050505050565b60008161058c576040805160e560020a62461bcd02815260206004820152600c60248201527f4552525f4449565f5a45524f0000000000000000000000000000000000000000604482015290519081900360640190fd5b670de0b6b3a764000083028315806105b45750670de0b6b3a76400008482816105b157fe5b04145b610608576040805160e560020a62461bcd02815260206004820152601060248201527f4552525f4449565f494e5445524e414c00000000000000000000000000000000604482015290519081900360640190fd5b60028304810181811015610666576040805160e560020a62461bcd02815260206004820152601060248201527f4552525f4449565f494e5445524e414c00000000000000000000000000000000604482015290519081900360640190fd5b600084828161067157fe5b049695505050505050565b600082820283158061069657508284828161069357fe5b04145b6106ea576040805160e560020a62461bcd02815260206004820152601060248201527f4552525f4d554c5f4f564552464c4f5700000000000000000000000000000000604482015290519081900360640190fd5b6706f05b59d3b2000081018181101561074d576040805160e560020a62461bcd02815260206004820152601060248201527f4552525f4d554c5f4f564552464c4f5700000000000000000000000000000000604482015290519081900360640190fd5b6000670de0b6b3a764000082610671565b600080600061076d85856107cf565b9150915080156107c7576040805160e560020a62461bcd02815260206004820152601160248201527f4552525f5355425f554e444552464c4f57000000000000000000000000000000604482015290519081900360640190fd5b509392505050565b6000808284106107e557505080820360006107ed565b505081810360015b925092905056fea265627a7a72315820ef7642b7f54ab361fadfb8838c78ea07bfea40d198a50a743c3287e8e3d7c5af64736f6c634300050c0032",
  "source": "import \"../../BNum.sol\";\n\npragma solidity 0.5.12;\n\n//  This test is similar to TBPoolJoin but with an exit fee\ncontract TBPoolJoinExit is BNum {\n\n    bool public echidna_no_bug_found = true;\n\n    // joinPool models the BPool.joinPool behavior for one token\n    function joinPool(uint poolAmountOut, uint poolTotal, uint _records_t_balance)\n        internal pure returns(uint)\n    {\n        uint ratio = bdiv(poolAmountOut, poolTotal);\n        require(ratio != 0, \"ERR_MATH_APPROX\");\n\n        uint bal = _records_t_balance;\n        uint tokenAmountIn = bmul(ratio, bal);\n\n        return tokenAmountIn;\n    }\n\n    // exitPool models the BPool.exitPool behavior for one token\n    function exitPool(uint poolAmountIn, uint poolTotal, uint _records_t_balance)\n        internal pure returns(uint)\n    {\n        uint exitFee = bmul(poolAmountIn, EXIT_FEE);\n        uint pAiAfterExitFee = bsub(poolAmountIn, exitFee);\n        uint ratio = bdiv(pAiAfterExitFee, poolTotal);\n        require(ratio != 0, \"ERR_MATH_APPROX\");\n\n        uint bal = _records_t_balance;\n        uint tokenAmountOut = bmul(ratio, bal);\n\n        return tokenAmountOut;\n    }\n\n\n    // This function model an attacker calling joinPool - exitPool and taking advantage of potential rounding\n    // issues to generate free pool token\n    function joinAndExitPool(uint poolAmountOut, uint poolAmountIn, uint poolTotal, uint _records_t_balance) public {\n        uint tokenAmountIn = joinPool(poolAmountOut, poolTotal, _records_t_balance);\n\n        // We constraint poolTotal and _records_t_balance\n        // To have \"realistic\" values\n        require(poolTotal <= 100 ether);\n        require(poolTotal >= 1 ether);\n        require(_records_t_balance <= 10 ether);\n        require(_records_t_balance >= 10**6);\n\n        poolTotal = badd(poolTotal, poolAmountOut);\n        _records_t_balance = badd(_records_t_balance, tokenAmountIn);\n\n        require(tokenAmountIn > 0); // prevent triggering the free token generation from joinPool \n\n        require(poolTotal >= poolAmountIn);\n        uint tokenAmountOut = exitPool(poolAmountIn, poolTotal, _records_t_balance);\n        require(_records_t_balance >= tokenAmountOut);\n\n        // We try to generate free pool share \n        require(poolAmountOut > poolAmountIn); \n        require(tokenAmountOut == tokenAmountIn); \n        echidna_no_bug_found = false;\n    }\n\n}",
  "sourcePath": "/home/justin/freelancing/balancer-core/contracts/test/echidna/TBPoolJoinExitPool.sol",
  "compiler": {
    "name": "solc",
    "version": "0.5.12+commit.7709ece9.Emscripten.clang"
  },
  "schemaVersion": "3.1.0",
  "updatedAt": "2020-08-12T20:46:57.384Z",
  "devdoc": {
    "methods": {}
  },
  "userdoc": {
    "methods": {}
  }
}